:020000040800F2
:1000000008080020D5010008310D0008C1080008CB
:100010002D0D0008750400083717000800000000C7
:100020000000000000000000000000008113000834
:100030000105000800000000AF110008B11400081D
:10004000EF010008EF010008EF010008EF010008D0
:10005000EF010008EF010008EF010008EF010008C0
:10006000EF010008EF010008EF010008EF010008B0
:10007000EF010008EF010008EF010008EF010008A0
:10008000EF010008EF010008EF010008EF01000890
:10009000EF010008EF010008EF010008EF01000880
:1000A000EF010008EF010008EF010008EF01000870
:1000B000EF010008EF010008EF010008EF01000860
:1000C000EF010008EF010008EF010008EF01000850
:1000D000EF01000815150008EF010008EF01000806
:1000E000EF010008EF010008EF010008EF01000830
:1000F000EF010008EF010008EF010008EF01000820
:10010000EF010008EF010008EF010008EF0100080F
:10011000EF010008EF010008EF010008EF010008FF
:10012000EF010008EF010008EF010008EF010008EF
:1001300000F002F800F03FF80AA090E8000C8244BA
:100140008344AAF10107DA4501D100F034F8AFF297
:10015000090EBAE80F0013F0010F18BFFB1A43F0A5
:10016000010318474C3500006C350000103A24BFDD
:1001700078C878C1FAD8520724BF30C830C144BF0C
:1001800004680C607047000000230024002500264E
:10019000103A28BF78C1FBD8520728BF30C148BFEA
:1001A0000B607047732900F0D880002070471FB59E
:1001B0001FBD10B510BD00F02BF91146FFF7F7FF7A
:1001C00001F01CFC00F049F903B4FFF7F2FF03BC97
:1001D00001F020FB0948804709480047FEE7FEE799
:1001E000FEE7FEE7FEE7FEE7FEE7FEE7FEE7FEE7E7
:1001F00004480549054A064B70470000B51400083D
:10020000310100080802002008080020080400202E
:1002100008040020704700000FB4044910B503AA79
:10022000029800F09FF810BC5DF814FB60000020FD
:100230002DE9F0410E460446002020622046E16888
:10024000884730B3252805D0D4E901219047206A9A
:10025000401CF2E7E168204600278847050018D0D7
:10026000A5F14100192802D820354FF40067324625
:10027000294620462760FFF795FF40B1012804D0AA
:10028000F61D26F007060836D8E7361DD6E72846BD
:10029000DAE7206ABDE8F08170B50C460546012A10
:1002A00005D02878800600D5EA69002302E0012302
:1002B00005E05B1C934202D2E05C0028F9D1A869FA
:1002C000E618C01AA861286A184428622846AFF3C5
:1002D000008004E0D5E9012114F8010B9047B442F5
:1002E000F8D32846AFF3008070BD4FF00002042918
:1002F000C0F0128010F0030C00F04880CCF1040C28
:10030000BCF1020F18BF00F8012BA8BF20F8022B88
:10031000A1EB0C0100F03AB85FEAC17C24BF00F801
:10032000012B00F8012B48BF00F8012B70477047E4
:1003300070477047704710B5436913B1AFF3008041
:1003400001E0FFF7A9FF012010BD127800F12401A0
:100350000A7000224A700122EDE711684FF0FF3267
:10036000E9E70000074B70B50D467B4400F039F813
:100370000446284600F048F810B14FF0FF3070BD39
:10038000204670BD731600004FF0000200B5134602
:1003900094469646203922BFA0E80C50A0E80C50A5
:1003A000B1F12001BFF4F7AF090728BFA0E80C5056
:1003B00048BF0CC05DF804EB890028BF40F8042B4F
:1003C00008BF704748BF20F8022B11F0804F18BFBC
:1003D00000F8012B7047000001694A1C026108788F
:1003E000704700B58FB0CDE9013100210591054975
:1003F0007944CDE9031011466846FFF719FF0FB0A5
:1004000000BD0000E5FFFFFF007B00F080007047AB
:10041000754600F02BF8AE4605006946534620F0BD
:100420000700854618B020B5FFF7E2FEBDE8204082
:100430004FF000064FF000074FF000084FF0000BA0
:1004400021F00701AC46ACE8C009ACE8C009ACE853
:10045000C009ACE8C0098D46704710B50446AFF33B
:1004600000802046BDE81040FFF7AEBE0048704750
:10047000A401002000BFFEE72DE9F04107468846B1
:1004800015460421052000F02DF80021012001F07F
:100490006DF980210A2000F074FF002405E0395D29
:1004A000092001F063F9601CC4B24445F7DB032165
:1004B000012001F05BF9FF2400BF052000F0F2FEEF
:1004C0000646601EC4B21CB106F004000028F4D039
:1004D000222000F0E7FE2870212000F0E3FE687083
:1004E000BDE8F08170B505460C460026284600F0B0
:1004F000D9FE064626EA0401284601F037F970BD08
:1005000070472DE9F0410246002500260020002317
:100510000024002791F803C00CF00F0591F803C0E8
:100520000CF0100CBCF1000F03D091F802C04CEAA3
:10053000050591F800C0BCF1000F31D0146800200F
:100540002BE04FF0010C0CFA00F3B1F800C00CEAFC
:1005500003069E4220D183004FF00F0C0CFA03F7E4
:10056000BC4305FA03FC4CEA040491F803C0BCF157
:10057000280F06D14FF0010C0CFA00FCC2F814C091
:100580000AE091F803C0BCF1480F05D14FF0010C0F
:100590000CFA00FCC2F810C0401C0828D1D314602B
:1005A000B1F800C0BCF1FF0F34DD546800202EE02C
:1005B00000F1080C4FF0010808FA0CF3B1F800C084
:1005C0000CEA03069E4221D183004FF00F0C0CFA77
:1005D00003F7BC4305FA03FC4CEA040491F803C09A
:1005E000BCF1280F05D100F1080C08FA0CF8C2F88C
:1005F000148091F803C0BCF1480F07D100F1080C3A
:100600004FF0010808FA0CF8C2F81080401C0828C6
:10061000CED35460BDE8F0810246002093680B40C1
:100620000BB1012000E0002070474161704701617B
:100630007047000008B50121042000F0B9FD022038
:10064000ADF8000010208DF8030002208DF80200A4
:1006500069462C48FFF755FF0121042000F0A8FD52
:100660008020ADF8000004208DF8030002208DF8F2
:10067000020069462348FFF744FF0121042000F0EF
:1006800097FD4020ADF8000010208DF803000220F7
:100690008DF8020069461B48FFF733FF0121042053
:1006A00000F086FD2020ADF8000010208DF803003A
:1006B00002208DF8020069461248FFF722FF01214F
:1006C000042000F075FD1020ADF800008DF8030047
:1006D00002208DF8020069460A48FFF712FF012147
:1006E000102000F065FD4FF40050ADF80000102020
:1006F0008DF8030002208DF8020069460248FFF7DA
:1007000000FF08BD00080140001001402DE9F84F2E
:100710000746884693469A46DDF828900097B3E04E
:1007200099F8000080283DDA99F800600D2E05D177
:10073000009F08F110001FFA80F830E0202E03DD42
:10074000A6F1200086B200E00026002422E0002569
:100750001CE004EB06105049085C80212941084048
:1007600040B108EB040291B27A1990B25A4600F0F7
:1007700097F809E0D34507D008EB040291B27A1943
:1007800090B2524600F08CF8681CC5B2082DE0DB30
:10079000601CC4B2102CDADB07F1080087B209F143
:1007A000010971E0002668E006EB06103B4911F8EC
:1007B000100099F8001088425DD106EB0610374909
:1007C00001EB4000407899F80110884253D1002491
:1007D0004FE0002520E006EB0610304901EB400019
:1007E000801C10F8141080202841014041B108EB12
:1007F000040291B27A1990B25A4600F051F809E019
:10080000D34507D008EB040291B27A1990B2524650
:1008100000F046F8681CC5B2082DDCDB002524E09A
:1008200006EB06101D4901EB4000801C012101EB85
:100830004401405C80212941084048B108EB040292
:1008400091B27A19083290B25A4600F029F80AE0BB
:10085000D34508D008EB040291B27A19083290B25D
:10086000524600F01DF8681CC5B2082DD8DB601C8C
:10087000C4B2102CADDB701C86B2322E94DB09F1B1
:10088000020907F1100087B299F8000000287FF4F0
:1008900047AFBDE8F88F0000D81C00084A2A0008BE
:1008A00070B504460D461646681C83B2601C82B2C1
:1008B0002946204600F0B8F9304600F05FF870BDD8
:1008C00000BFFEE710B54FF400511648FFF7ADFE2C
:1008D0000A2000F0A2FF00F0D5FB00F063FA00F060
:1008E00067FA412000F0F4F94FF400510D48FFF78A
:1008F0009EFE0A2000F091FF4FF400510948FFF7D7
:1009000094FE0A2000F089FF4FF400510548FFF7DC
:100910008EFE0A2000F081FF4FF400510148FFF7DE
:1009200084FE10BD0010014008B50121082000F030
:100930003FFC4FF47040ADF8000003208DF802003A
:1009400010208DF8030069460A48FFF7DAFD0121FF
:10095000042000F02DFC4FF4C050ADF8000003203F
:100960008DF8020010208DF8030069460248FFF759
:10097000C8FD08BD000C01400008014010B5044648
:100980004FF40050084908604000091F0860201219
:1009900000F0D6FCE0B200F0D3FC4FF40050024966
:1009A000091F086010BD0000140C014070B5064618
:1009B0009F237F220021084600F036F92C2000F00A
:1009C00073F9002408E0002503E03046FFF7D6FF66
:1009D0006D1CA02DF9D3641C802CF4D370BD10B510
:1009E000FFF7A2FF00F00CF9112000F05DF978206C
:1009F00000F042FFB12000F057F9012000F040F96B
:100A00002C2000F03DF92D2000F03AF9B22000F042
:100A10004BF9012000F034F92C2000F031F92D20A1
:100A200000F02EF9B32000F03FF9012000F028F982
:100A30002C2000F025F92D2000F022F9012000F0F3
:100A40001FF92C2000F01CF92D2000F019F9B4201A
:100A500000F02AF9072000F013F9C02000F024F973
:100A6000A22000F00DF9022000F00AF9842000F025
:100A700007F9C12000F018F9C52000F001F9C220E3
:100A800000F012F90A2000F0FBF8002000F0F8F85E
:100A9000C32000F009F98A2000F0F2F82A2000F0C3
:100AA000EFF8C42000F000F98A2000F0E9F8EE2009
:100AB00000F0E6F8C52000F0F7F80E2000F0E0F8AE
:100AC000362000F0F1F8C02000F0DAF8E02000F065
:100AD000EBF80F2000F0D4F81A2000F0D1F80F2026
:100AE00000F0CEF8182000F0CBF82F2000F0C8F866
:100AF000282000F0C5F8202000F0C2F8222000F0E5
:100B0000BFF81F2000F0BCF81B2000F0B9F823202C
:100B100000F0B6F8372000F0B3F8002000F0B0F88D
:100B2000072000F0ADF8022000F0AAF8102000F035
:100B3000A7F8E12000F0B8F80F2000F0A1F81B2082
:100B400000F09EF80F2000F09BF8172000F098F8B6
:100B5000332000F095F82C2000F092F8292000F0C6
:100B60008FF82E2000F08CF8302000F089F830202B
:100B700000F086F8392000F083F83F2000F080F87C
:100B8000002000F07DF8072000F07AF8032000F044
:100B900077F8102000F074F82A2000F085F8002083
:100BA00000F06EF8002000F06BF8002000F068F80C
:100BB0007F2000F065F82B2000F076F8002000F090
:100BC0005FF8002000F05CF8002000F059F89F204A
:100BD00000F056F8F02000F067F8012000F050F81F
:100BE000F62000F061F8002000F04AF83A2000F00A
:100BF0005BF8052000F044F8292000F055F810BDFE
:100C000010B54FF4004007490860642000F034FE3E
:100C10004FF400400349091F0860322000F02CFE09
:100C200010BD0000140C0140F0B504460D461646F8
:100C30001F462A2000F038F8002000F021F8A11CFF
:100C4000C8B200F01DF8002000F01AF8B11CC8B2BC
:100C500000F016F82B2000F027F8002000F010F824
:100C6000691CC8B200F00CF8002000F009F8791CEB
:100C7000C8B200F005F82C2000F016F8F0BD000016
:100C800010B504464FF40050064908604000091FA3
:100C90000860204600F054FB4FF400500149091F42
:100CA000086010BD140C014010B504464FF400500C
:100CB0000649086040000860204600F041FB4FF400
:100CC00000500249091F086010BD0000140C0140CB
:100CD00010B50446412C25D108210846FFF702FC37
:100CE0003D21112000F042FD8621172000F03EFD3D
:100CF0007F21262000F03AFD1E212D2000F036FD38
:100D000000212C2000F032FD8D212A2000F02EFD44
:100D10003E212B2000F02AFD012000F07EFD00F096
:100D200047F801E0FF2010BD0020FCE700BFFEE710
:100D30007047000070B5002100230F22C47804B36F
:100D4000154C246804F4E064C4F5E064210AC1F1A0
:100D50000403CA40447804FA03F184781440214320
:100D600009010E4C0678A155047804F01F050124F2
:100D7000AC4005786D11AD0005F1E025C5F80041E6
:100D800009E0047804F01F050124AC40044D067806
:100D9000761145F8264070BD0CED00E000E400E05F
:100DA00080E100E010B503211420FFF79BFB10BD8C
:100DB00010B5142000F076FA044604F0030018B9C8
:100DC0000321142000F0DDFA10BDF0B587B0054610
:100DD000002708210846FFF785FB00210D2000F0C1
:100DE000C5FC80210E20FFF77DFB93208DF80400C9
:100DF00020208DF8050006A801AB022201A9009071
:100E00000C2000F051F8064686B9002407E001A83E
:100E1000005D285501A8005D4740601CC4B2042C49
:100E2000F5DB01A8005DB84200D0FE2680210E202F
:100E300000F0A7FA304607B0F0BD2DE9F04387B0C7
:100E400006460F46904699468DF804608DF8057069
:100E5000002406E018F8041001AAA01C1154601C1C
:100E6000C4B2062CF6DB002407E019F8041001AA2E
:100E700004F108001154601CC4B2062CF5DB06A86E
:100E800001AB0C2201A900900E2000F00DF80546E0
:100E90002DB9082000F006FA00F0080000B9FE2580
:100EA000284607B0BDE8F0832DE9FE4F0646884688
:100EB00091469A46DDF830B0FE2002900020019065
:100EC00000900C2E06D00E2E09D112200190102079
:100ED000009005E0772001903020009000E000BFF6
:100EE00000BF019840F08001022000F03FFC80210B
:100EF0000420FFF7F7FA0021012000F037FC8021E1
:100F00000A2000F03EFA002505E018F80510092037
:100F100000F02CFC6D1C4D45F7D33146012000F04C
:100F200025FC0C2E03D180210D2000F02AFA4FF46D
:100F3000FA6500BF042000F0B5F904466D1E35B116
:100F400004F0010018B9009820400028F2D0802158
:100F50000D20FFF7C7FA95B3062000F0A3F900F0C3
:100F60001B0068BB002002900198204000F00100A7
:100F700008B1FF2002900C2E24D10A2000F092F933
:100F800004460C2000F08EF900F007072FB1601E18
:100F900007EBC000CBF8000002E0E000CBF8000057
:100FA00004B90124122C00DD1224002505E00920DB
:100FB00000F078F90AF805006D1CA542F7D301E0AE
:100FC000FE20029080210C2000F0DBF9002101209E
:100FD00000F0CCFB0298BDE8FE8FF0B587B0054667
:100FE0000E4630208DF804008DF805500DF10602F4
:100FF000022101A8FFF740FA06A801AB042201A9CB
:1010000000900C20FFF750FF074667B9069890281C
:1010100009D1002404E001A8005D3055601CC4B271
:10102000102CF8DB00E0FE27384607B0F0BD70B5A5
:1010300088B005460C4608210846FFF753FA0721F9
:101040000D2000F093FB0321142000F09AF98DF895
:10105000085007A802AB012202A900900C20FFF75C
:1010600023FF06464EB90798102806D19DF80800C0
:1010700020709DF80900607000E0FE26304608B040
:1010800070BD000010B502212A48FFF7D0FA0120F8
:1010900000F0C3FB02212748FFF7C7FA012000F048
:1010A000BCFB02212348FFF7C2FA0A2000F0B5FB7F
:1010B000022000F0F7F880281ED181011E48FFF7BA
:1010C000B6FA0A2000F0A9FB4FF400511A48FFF7C6
:1010D000ACFA0A2000F0A1FB4FF400511648FFF7CC
:1010E000A6FA0A2000F099FB4FF400511248FFF7CE
:1010F0009CFA0A2000F091FB0F21012000F036FB42
:101100003D21112000F032FB1E212D2000F02EFB8E
:1011100000212C2000F02AFB8D212A2000F026FB44
:101120003E212B2000F022FB4021152000F01EFB69
:10113000002010BD000801400010014070B588B0CB
:10114000054693208DF8080070208DF809000020D6
:101150008DF80E0000240BE0295D02AAA01C11549A
:101160009DF80E00295D48408DF80E00601CC4B249
:10117000042CF1DB0DF10F02072102A8FFF77CF927
:1011800008210846FFF7AEF907A802AB092202A919
:1011900000900C20FFF788FE064626B9079818280D
:1011A00001D1002600E0FE26304608B070BD704731
:1011B00029B1064A92690243044B9A6104E0034A4A
:1011C00092698243014B9A6170470000001002400F
:1011D00030B500210022002400232D4D6D6805F05C
:1011E0000C0121B1042905D0082923D105E0294D9E
:1011F000056022E0274D05601FE0254D6D6805F470
:101200007012234D6D6805F48034022505EB92427F
:101210001CB9214D554305600BE01D4D6D6805F46B
:1012200000351DB11C4D5543056002E0194D554375
:10123000056002E0174D056000BF00BF144D6D68EA
:1012400005F0F0010909154D6B5C0568DD4045604E
:101250000F4D6D6805F4E061090A104D6B5C45683F
:10126000DD4085600A4D6D6805F46051C90A0B4D7B
:101270006B5C4568DD40C560054D6D6805F4404117
:10128000890B074D6B5CC568B5FBF3F5056130BD97
:101290000010024000127A0000093D0066000020A4
:1012A000760000202DE9F041064600251021234854
:1012B000FFF7BBF97E2000EA460040F080070824D3
:1012C00017E020211D48FFF7B0F907F0800020B19A
:1012D00040211A48FFF7ABF903E040211748FFF718
:1012E000A4F920211548FFF7A2F97806070E601E21
:1012F000C4B2002CE5DC082413E020210F48FFF7DE
:1013000094F96806050E20210C48FFF790F980211A
:101310000A48FFF781F9012801D145F00105601E57
:10132000C4B2002CE9DC10210448FFF780F9202129
:101330000248FFF77CF92846BDE8F081000801402B
:101340000021082117E000F0800222B14FF4006272
:101350000A4B1A6004E04FF40062084B1B1D1A6030
:101360004FF48052054B1B1D1A601B1F1A6042066A
:10137000100E4A1ED1B20029E5DC7047100801406A
:10138000704770B505460C4600262846FFF78AFFD1
:10139000064646EA0401284600F0E8F970BD10B59B
:1013A00000F002F810BD00000CB500200190009084
:1013B0003348006840F480303149086000BF30484D
:1013C000006800F4003000900198401C01900098E3
:1013D00018B90198B0F5A06FF1D12948006800F460
:1013E000003010B10120009001E000200090009832
:1013F000012843D12348006840F0100021490860CB
:101400000846006820F0030008600846006840F0C5
:10141000020008601A484068194948600846406858
:1014200048600846406840F480604860084640686C
:1014300020F47C1048600846406840F4E81048609A
:101440000846006840F08070086000BF0C480068E3
:1014500000F000700028F9D00948406820F003002F
:10146000074948600846406840F00200486000BFF5
:101470000348406800F00C000828F9D10CBD0000BA
:101480000010024000200240042808D14FF0E02163
:10149000096941F004014FF0E022116107E04FF0CB
:1014A000E021096921F004014FF0E0221161704749
:1014B0007047000010B51348006840F00100114962
:1014C000086008464068104908400E4948600846D0
:1014D00000680E4908400B4908600846006820F47F
:1014E000802008600846406820F4FE0048604FF401
:1014F0001F008860FFF753FF4FF000600449086049
:1015000010BD0000001002400000FFF8FFFFF6FED3
:1015100008ED00E010B540F225511D4800F04AF8F2
:1015200010B31B4800F002F9C4B21A48008800F456
:101530000040C8B91748008800F4804060B10A2C08
:1015400003D000201349088020E01248008840F4AE
:1015500000401049088019E00D2C06D10D48008884
:1015600040F480400B49088010E00A480088C0F32E
:101570000D0009490C5407480088401C05490880A3
:1015800008460088C72801DD0020088010BD000043
:101590000038014064000020DA00002021B1828977
:1015A00042F40052828104E082894DF6FF731A40B2
:1015B0008281704770B50246002400230025002078
:1015C00040F66A16B14200D100BFC1F3421501F0E6
:1015D0001F03012606FA03F3012D02D19689334039
:1015E00006E0022D02D1168A334001E0968A33408C
:1015F0000C12012606FA04F41688344013B10CB11B
:10160000012000E0002070BDF0B503460024002654
:101610000025002040F66A17B94200D100BF1846E5
:10162000C1F3421401F01F06012707FA06F5012C49
:1016300001D10C3004E0022C01D1103000E0143054
:101640001AB107682F43076002E00768AF430760DD
:10165000F0BD00002DE9F04786B005460E46002497
:10166000A24600BFA1460027B08900B100BF2F46A7
:101670002C8A4CF6FF700440F08804432C82AC891D
:101680004EF6F3100440B08831890843718908434D
:101690000443AC81AC8A4FF6FF400440B089044358
:1016A000AC8201A8FFF794FD1F48874202D1DDF804
:1016B00010A001E0DDF80CA0A88900F4004040B1C2
:1016C0000AEBCA0000EB0A1031684900B0FBF1F8E0
:1016D00007E00AEBCA0000EB0A1031688900B0FB92
:1016E000F1F86420B8FBF0F004012009642101FB4B
:1016F0001089A88900F4004040B1322000EBC900F5
:10170000B0FBF1F000F00700044308E0322000EBEA
:1017100009106421B0FBF1F000F00F0004432C81AC
:1017200006B0BDE8F0870000003801400146888817
:10173000C0F30800704700BFFEE738B515E0694602
:101740005220FFF774FC044664B169465220FFF74B
:101750006EFC044634B169465220FFF768FC04462B
:1017600004B138BD0A2000F058F8E8E72DE9F0414F
:1017700006460D4620212648FEF757FF1021244833
:10178000FEF753FF7E2000EA4607082417E007F023
:10179000800020B140211E48FEF749FF03E04021B0
:1017A0001B48FEF742FF20211948FEF740FF78064C
:1017B000070E20211648FEF738FF601EC4B2002C29
:1017C000E5DC082417E005F0800020B14021104836
:1017D000FEF72DFF03E040210D48FEF726FF2021F4
:1017E0000B48FEF724FF6806050E20210848FEF787
:1017F0001CFF601EC4B2002CE5DC10210448FEF77B
:1018000016FF20210248FEF712FFBDE8F08100001C
:1018100000080140014600BF7047002107E0002298
:1018200000E0521C4EF660239A42FAD3491C8142D2
:10183000F5D3704710B56FF00400FFF725FE0A4896
:1018400000680A49B0FBF1F00949087008460078C1
:1018500000EB4001C1EBC0104FF6FF7101EAC00080
:101860000449088010BD00004800002000127A00E2
:101870005C0000205E0000200146114A12884A43A5
:101880004FF0E0235A6100229A611A46126942F031
:1018900001021A6100BF4FF0E022106900F001025E
:1018A0001AB100F48032002AF5D04FF0E02212691C
:1018B00022F001024FF0E0231A6100229A61704782
:1018C0005E00002010B5002417E03E48005D3E4950
:1018D000095D884208D100203C4908704FF400514E
:1018E0003B48FEF7A2FE0AE0032C03D10120374952
:1018F00008704EE000BF601CC4B2052CE5DB00BFE1
:10190000002412E02F48005D3249095D884203D06F
:1019100000202E4908700AE0032C03D102202B4935
:10192000087036E000BF601CC4B2042CEADB00BFC4
:10193000002412E02348005D2749095D884203D056
:101940000020224908700AE0032C03D103201F491C
:1019500008701EE000BF601CC4B2042CEADB00BFAC
:10196000002412E01748005D1C49095D884203D03D
:101970000020164908700AE0032C03D10420134903
:10198000087006E000BF601CC4B2042CEADB00BF94
:1019900000BF0E480078012801D10C4908700B489F
:1019A0000078022801D10949087008480078032806
:1019B00001D10649087005480078042801D103497F
:1019C000087010BD24000020000000203C00002012
:1019D0000010014005000020090000200D0000203B
:1019E00000BF054A128802F04002002AF9D0C2B2B4
:1019F000014B1B1D1A8070470038014008B50025B7
:101A0000012600206E490870FFF754FDFFF712FF12
:101A1000FEF7E5FF30036B4908604EF67D70FEF778
:101A2000C5FF69A04EF67D731F221E210090002085
:101A3000FEF76CFE67A04EF67D731F2246210090D4
:101A40000020FEF763FE4FF47A70FFF715FFFEF7F4
:101A5000F1FDFEF737FF4FF4E13000F0EDF860A044
:101A6000FEF7DAFBAAE065495220FFF7E0FA0446E8
:101A7000002C50D16248FFF7A8F90446002C4AD147
:101A80005F48FFF75BFB0446002C44D101205D4911
:101A9000087008460078032202EB8000C1B2584B60
:101AA000594A6020FFF7C9F90446002C33D10120C0
:101AB000FFF7B3FE7CBB4FF400515448FEF7B7FD6F
:101AC00050480078032202EB8000C1B24C4B4E4AD2
:101AD0006020FFF7B2F94B490978002202EB81013F
:101AE000C8B24B49FFF779FA0446FFF7EBFE022E26
:101AF00008D1434947A0FEF78FFB0120FFF78DFE79
:101B0000012606E03E4945A0FEF786FB0120FFF7CF
:101B100084FEFFF712FE0120FFF77FFE4FF4005115
:101B20003A48FEF782FD3F48008800F40040002854
:101B300044D000203B4908803B480078232803D14B
:101B40003AA0FEF769FB34E037480078212804D139
:101B5000022637A0FEF760FB2BE0334800783128DF
:101B60000AD1314D6D1C4EF67D731F2232210020AB
:101B70000095FEF7CBFD1CE02B48007832280AD1F7
:101B8000294D6D1C4EF67D731F22642100200095A7
:101B9000FEF7BCFD0DE024480078332809D1224D22
:101BA0006D1C4EF67D731F22822100200095FEF7EA
:101BB000ADFD0025C8211C48FEF797FB53E7000048
:101BC0003C000020100C0140456E7472792054696D
:101BD0006D6500004C6566742054496D6500000019
:101BE0000D0A2054686973206973206120524649A8
:101BF000442053797374656D200D0A002200002083
:101C000024000020110000202800002000100140C6
:101C10007C0000202A302573230000002A31257320
:101C20002300000064000020DA00002021000000F2
:101C30007265676973740A0010B586B004460121A5
:101C400044F20400FFF7B4FA4FF40070ADF814004A
:101C500003208DF8160018208DF8170005A91C48E0
:101C6000FEF74FFC4FF48060ADF8140004208DF8AF
:101C7000170005A91648FEF744FC25208DF8000042
:101C800003208DF801008DF8020001208DF803007B
:101C90006846FFF74FF801940020ADF80800ADF852
:101CA0000A00ADF80C00ADF810000C20ADF80E00E5
:101CB00001A90848FFF7CEFC012240F22551054852
:101CC000FFF7A2FC01210348FFF768FC06B010BD36
:101CD0000008014000380140000000000000000042
:101CE0000000000000000000001010101010101084
:101CF000101000001010000000006C6C2424000084
:101D000000000100000000000024242424FE4848B4
:101D10004848FC909090900000103C5492905038AD
:101D200014121292547810000000225C94A84810FB
:101D300010242A5254880000000030484850206E79
:101D400054948C888A740000000030301010000019
:101D500000000000000000000004081010202020F7
:101D600020202010100804000080402020101010B7
:101D70001010102020408000000000001054381087
:101D8000385410000000000000000010101010FE79
:101D90001010101000000000000000000000000003
:101DA000000000001010200000000000000000FEF5
:101DB0000000000000000000000000000000000023
:101DC00000000000101000000000040408081010BB
:101DD00020204040808000000000384482828282BF
:101DE00082828282443800000000107010101010AF
:101DF00010101010107C000000003844828204088B
:101E00001020408284FC0000000038448202043824
:101E100004020282443800000000040C141424243C
:101E20004444FE04040E00000000FC808080B8C41E
:101E3000820202828478000000003C428280B8C4A2
:101E4000828282824438000000007E4282040408BC
:101E50000808101010100000000038448282443836
:101E600044828282443800000000384482828282A8
:101E7000463A0282443800000000000010100000C2
:101E80000000101000000000000000001010000012
:101E90000000001010200000000000000618608004
:101EA0006018060000000000000000000000FE00B6
:101EB00000FE00000000000000000000C0300C0226
:101EC0000C30C00000000000003844828202040888
:101ED000101010001010000000003844829AAAAAC6
:101EE000AAAAAA9680423C000000101010282828B8
:101EF00044447C4444EE00000000FC424242427CE8
:101F00004242424242FC000000003C448280808009
:101F100080808282443800000000F84442424242FD
:101F20004242424244F800000000FC444240447CEB
:101F30004440404244FC00000000FC444240447CD9
:101F40004440404040F000000000344C82808080DB
:101F50008E8484844C3400000000EE444444447C6D
:101F60004444444444EE000000007C101010101063
:101F700010101010107C000000003E08080808082F
:101F800008080888887000000000EE444848506047
:101F90005048484444EE00000000E04040404040CB
:101FA0004040404244FC00000000C6446C6C6C544D
:101FB0005454444444EE00000000CE44646464542D
:101FC000544C4C4C44E4000000003844828282822D
:101FD00082828282443800000000F8444242424437
:101FE0007840404040E00000000038448282828215
:101FF000828282BA443C02000000F04844444448D3
:102000007048444444E6000000003C448280403074
:102010000C0202824478000000007C5492101010E0
:1020200010101010103800000000EE4444444444E6
:1020300044444444443800000000EE4444444428EE
:1020400028282810101000000000EE445454545466
:1020500054542828282800000000EE444428281062
:102060001028284444EE00000000EE4444282828AC
:10207000101010101038000000007E448408081072
:102080002020408284FC0000001C10101010101052
:102090001010101010101C000000EE445454FE5498
:1020A0005454282828280000007010101010101018
:1020B0001010101010107000003048840000000054
:1020C0000000000000000000000000000000000010
:1020D000000000000000FE000040200000000000A2
:1020E00000000000000000000000000000007884F4
:1020F000047C84848C7600000000C040404058641A
:10210000424242426458000000000000000038448F
:10211000808080804438000000000C040404344CAB
:10212000848484844C360000000000000000788421
:1021300084FC808084780000000018242020F8208F
:1021400020202020207000000000000000003A4401
:102150004478807C82827C000000C040404058640B
:102160004444444444EE00000000101000003010CD
:102170001010101010380000000010100000301077
:1021800010101010109060000000C04040405C48EB
:102190005060504844EE0000000030101010101144
:1021A0001010101010390000000000000000ACD228
:1021B0009292929292D6000000000000000058E433
:1021C0004444444444EE0000000000000000384451
:1021D0008282828244380000000000000000D8643F
:1021E000424242645840E000000000000000364CCB
:1021F0008484844C34040E000000000000006C3025
:1022000020202020207000000000000000007888BE
:102210008460188444780000000000202020F8200A
:102220002020202024180000000000000000C642EA
:1022300042424242463A0000000000000000EE44E4
:102240004428282810100000000000000000EE4480
:102250004454542828280000000000000000EE44E8
:102260002810102844EE0000000000000000EE449A
:102270004428281010A0C0000000000000007E4488
:102280008810204284FC0000000C10101010106018
:102290001010101010100C00001010101010101062
:1022A000101010101010100000C020202020201846
:1022B000202020202020C00000000000000000722C
:1022C0008C000000000000000000000000001FE083
:1022D00000003FF000003FF000001FE0000180061A
:1022E0000003C00F0003C00F0003C00F0003C00FA6
:1022F0000003C00F0003C00F0003C00F0003C00F96
:1023000000030003000000000000000000000000C7
:10231000000300030003C00F0003C00F0003C00F41
:102320000003C00F0003C00F0003C00F0003C00F65
:102330000003C00F0001800600001FE000003FF016
:1023400000003FF000001FE000000000000000005F
:102350000000008000000180000003800000078072
:102360000000078000000780000007800000078051
:102370000000078000000780000007800000078041
:1023800000000180000000000000000000000000CC
:102390000000018000000780000007800000078027
:1023A0000000078000000780000007800000078011
:1023B000000007800000078000000380000001800B
:1023C00000000080000000000000000000001FE08E
:1023D00000003FF00000FFF00001FFE000000006F9
:1023E0000000000F0000000F0000000F0000000FB1
:1023F0000000000F0000000F0000000F0000000FA1
:1024000000001FE300007FF800007FF800001FE0DD
:10241000000300000003C0000003C0000003C00070
:102420000003C0000003C0000003C0000003C000A0
:102430000003C0000001800000001FF000003FF812
:1024400000003FFC00001FFE000000000003FF80B2
:102450000001FFC00000FFC000007F8000000018E6
:102460000000003C0000003C0000003C0000003C7C
:102470000000003C0000003C0000003C0000003C6C
:1024800000007F8C0001FFE00001FFF000007F8072
:102490000000000C0000003C0000003C0000003C7C
:1024A0000000003C0000003C0000003C0000003C3C
:1024B0000000003C0000001800007F800000FFC00A
:1024C0000001FFC00003FF800000000000000000CA
:1024D0000002000100030003000380070003C00F97
:1024E0000003C00F0003C00F0003C00F0003C00FA4
:1024F0000003C00F0003C00F0003C00F0003C00F94
:1025000000031FE300007FF800007FFC00001FE0D5
:10251000000000030000000F0000000F0000000F8B
:102520000000000F0000000F0000000F0000000F6F
:102530000000000F0000000F000000070000000373
:1025400000000001000000000000000000001FFC6F
:1025500000003FF800003FF000001FE00001800095
:102560000003C0000003C0000003C0000003C0005F
:102570000003C0000003C0000003C0000003C0004F
:1025800000031FE000007FF800007FF800001FE05C
:10259000000000030000000F0000000F0000000F0B
:1025A0000000000F0000000F0000000F0000000FEF
:1025B0000000000F0000000600003FE000007FF078
:1025C0000000FFF00001FFE00000000000001FFC21
:1025D00000003FF800003FF000001FE00001800015
:1025E0000003C0000003C0000003C0000003C000DF
:1025F0000003C0000003C0000003C0000003C000CF
:1026000000031FE000007FF800007FFC00001FE0D7
:10261000000300030003C00F0003C00F0003C00F3E
:102620000003C00F0003C00F0003C00F0003C00F62
:102630000003C00F0001800600001FE000003FF013
:1026400000003FF000001FE0000000000007FFE076
:102650000003FFC00001FF880000FF1800000038E1
:10266000000000780000007800000078000000788A
:10267000000000780000007800000078000000787A
:102680000000001800000000000000000000000032
:1026900000000018000000780000007800000078BA
:1026A000000000780000007800000078000000784A
:1026B00000000078000000780000003800000018DA
:1026C00000000008000000000000000000001FE003
:1026D00000003FF000003FF000001FE00001800616
:1026E0000003C00F0003C00F0003C00F0003C00FA2
:1026F0000003C00F0003C00F0003C00F0003C00F92
:1027000000031FE300007FF800007FFC00001FE0D3
:10271000000300030003C00F0003C00F0003C00F3D
:102720000003C00F0003C00F0003C00F0003C00F61
:102730000003C00F0001800600001FE000003FF012
:1027400000003FF000001FE00000000000001FE05C
:1027500000003FF000003FF000001FE00001800695
:102760000003C00F0003C00F0003C00F0003C00F21
:102770000003C00F0003C00F0003C00F0003C00F11
:1027800000031FE300007FF800007FFC00001FE053
:10279000000000030000000F0000000F0000000F09
:1027A0000000000F0000000F0000000F0000000FED
:1027B0000000000F0000000600001FE000003FF0D6
:1027C00000007FF00000FFE00000000000000000BB
:1027D00000000000000000000000000000000000F9
:1027E00000000000000000000000000000000000E9
:1027F00000000000000000000000000000000000D9
:1028000000000000000000000000000000000000C8
:102810000000000000000000000000000000780040
:1028200000007800000078000000780000007800C8
:102830000000780000000000000000000000000020
:102840000000000000000000000000000000000088
:102850000000000000000000000000000000000078
:1028600000000000000000000000070000000F80D2
:1028700000000F8000000F80000007000000000033
:102880000000000000000000000000000000000048
:10289000000000000000070000000F8000000F8013
:1028A00000000F8000000700000000000000000092
:1028B0000000000000000000000000000000000018
:1028C0000000000000000000000000000000000008
:1028D00000000000000000000007C006000FE00636
:1028E0000000000C003018180030181800301830A4
:1028F0000030183000301860003008C00007C0C039
:10290000000FE080000000000000000FE00006075C
:10291000C000063018000C3018000C3018001830B9
:102920001800303018003030180060000000C00F70
:10293000E000C007C0000000000000000000000030
:102940000000000000000000000000000000000087
:102950000000000000000000000000000000000077
:10296000000700E0000887FC00088E0300089801BB
:102970008007180080003000000030000000700068
:1029800000006000000060000000600000006000C7
:102990000000600000007000000030000000300007
:1029A000000038000000180100000C03000007FCC4
:1029B000000001F000000000000000000000000026
:1029C0000000000000000000000000000000000007
:1029D00000000000000000000000000000000000F7
:1029E00000000000000000000000000000000000E7
:1029F00000000000000000000000000000000000D7
:102A00000000000000003FF000007FF000007FE0C9
:102A10000000FFC0000000000000000000000000F7
:102A200000000000000000000000000000000000A6
:102A30000000000000000000000000000000000096
:102A400000000000000000000000B5E702000200E6
:102A500002007FF0421042107FF0421042107FF0DF
:102A600042000208020801F800000000D7D37FF0FE
:102A700000200040008001000200FFF80200020078
:102A800002000200020002000E0000000000C8ABBD
:102A90000100010002800440082010102FE8C10648
:102AA000010001001FF00100010001007FFC000097
:102AB000B6AF004000407C40004001FC0044FE44B2
:102AC00020442044208448844484FD044504022892
:102AD0000410BCBC10201020102013FEFC2010207D
:102AE000102015FC18843088D04810501020105049
:102AF00051882606CAF501000120011001107FFC53
:102B000003800540054009201110210841040102FD
:102B1000010001000100D2BA0080404027F81140B6
:102B200001408278424816A81AD023502220422021
:102B30004250028800000000BEA73FE020203FE096
:102B400020203FE00000FDF885088508FDF8850895
:102B50008508FDF8850800000000B2E200084F88F3
:102B600028880AA88AA84AA80AA82AA82AA842281F
:102B7000450884888888103800000000CAD4405076
:102B8000204820400FF80040E040274022402240EB
:102B900022202A2833A82E18000800000000B3CCF9
:102BA00000001BF0E210221023F0F800200033F0A8
:102BB00068806080A3F02080208027F8000000005B
:102BC000D0F2020001003FF820002FF02020224028
:102BD00021803FF820882090408040808380000042
:102BE0000000D1D5200010F87E20444028F87E88CF
:102BF00048A850A864A848A872A8845018886108FA
:102C000000000000C9AB100010003FE04040808091
:102C10007FF04210421042107FF040004008400810
:102C20003FF800000000CCEE20802FF8208027F035
:102C3000F41027F0241027F0241027F03410CFF8D8
:102C40000220041000000000B3E404000200FFF8BA
:102C50000800104020207FF008900880088008803D
:102C600010882088C07800000000CEC40400020054
:102C70000200FFF8104010400880088005000200A4
:102C8000050008803060C01800000000D7D604009E
:102C90000200FFF8800880083FC0008001000200A9
:102CA000FFF80200020002000E0000000000CFD476
:102CB0003FE0202020203FE0202020203FE008802F
:102CC0004890289028A008800880FFF800000000A5
:102CD000CABE00003FE0000000000000FFF8020054
:102CE0001240122022104208820802000E0000004A
:102CF0000000CDBC7FF84008440847C848485488C5
:102D000043084CC8733840884C08430840887FF813
:102D100000000000C6AC00802080208020803FF0B2
:102D20002000200020003FC02040204020404040A4
:102D3000804000000000B4A520403840484091F099
:102D40007D50555055507D5055F054407C40545066
:102D500057F88C0800000000C3FE2220222027F82C
:102D6000FA2027F0241027F03410E7F020802FF805
:102D700021402220EC1800000000CAE440804140BD
:102D8000F22044108BE8A000F78824A827A834A8D4
:102D9000E7A824A8248825B800000000C8EB080094
:102DA00004000400020002000500050008800880FD
:102DB0001040104020204010800800000000C8ABE8
:102DC000020002000500088010402020DFD8020029
:102DD00002001FC0020002000200FFF80000000015
:102DE000B3CC00001BF0E210221023F0F80020000A
:102DF00033F068806080A3F02080208027F80000F6
:102E00000000BCBC208020802080F7F02080208043
:102E100027E03220E2202140208021402220EC18AF
:102E200000000000CAF50200024002200200FFF884
:102E300007000A800A801240222042108208020005
:102E4000020000000000D6A702000200FFF8020006
:102E500002007FE0102010400880050002000500FD
:102E600018C0E03800000000B3D62080208023F096
:102E7000F880208027F828203020E7F82020222022
:102E800021202020E0E000000000D7A8020002007E
:102E90007FF004000400FFF8080010003FE000206D
:102EA00000401C800300008000000000D7A2010049
:102EB0004080200017F0008080804080008017F064
:102EC00010802080208040804FF800000000C5FA6C
:102ED000204024402440F4482450276024403440BB
:102EE000E4402440244025482648E43800000000FF
:102EF000B7A202002220221044007FF8040008003C
:102F00000FE0142024404280810006C038380000C1
:102F10000000B3C900A0009000807FF8408040907E
:102F20007C90449044A044A0444858A8411882088A
:102F300000000000B9A601000100F90023F02110F3
:102F400021102110211021103910C210021004107C
:102F5000086000000000D2C60000002000780CE4E9
:102F60007904516810307E6019981A3C2FE448E4C7
:102F70000838003000600000D1A1000001200120CD
:102F800003FC62203420042003FC240021B0212013
:102F90002220323E18000FE00000D4F100000000B3
:102FA00010FC1304110C3DF8703E10D015907CF00D
:102FB000503E18101BFE023000200000CFEE000033
:102FC000000003FE00607C4012FC11041106113663
:102FD00011241F44794400C0009C01860000C4BF36
:102FE000000000000FE03C18200820043E046004AC
:102FF00060047E046004200C20081FF001800000A3
:10300000B6CC0000080011FC103E3EF82D8C2904BF
:10301000490409043E8C50FC10881EC811FC100E97
:103020000000B0B400000040006012FE13023A42FB
:103030007F4410C41BFE3C987190113011A00078A1
:10304000004C0000C8B70000004000F878C41F8C96
:10305000313821EC2126413A7DE2272225FA3D260E
:10306000012401040000B6A80000010001705FFC0B
:10307000700420042FF801001100113821C4310020
:103080003F0063E040380000B3A4000000000818CF
:10309000086008C00B001E00181C7FF01000118093
:1030A00010E01838098E0F000000B0B40000004096
:1030B000006012FE13023A427F4410C41BFE3C988B
:1030C0007190113011A00078004C0000B7B50000DD
:1030D000000007F80600240014F8078C04042408F4
:1030E000261825F0647C64C220801FC00000BBD875
:1030F000000000001FF030182008278C2C442844C2
:1031000028442CC427842004300C1FF803800000BE
:1031100000000000000000000000000000000000AF
:10312000000000000000000000000000000000009F
:103130000000B4BF000000000000020100063FC014
:103140000C3FE01803001002003336603726203EA3
:1031500066301C643018642031FEE03F1FC01C0C38
:1031600000000C000704003E07F00001C000000052
:10317000000000000000000000000000C9AB0000DB
:103180000000000001FE0003E3000703000C030041
:103190001C3F003BFFC03F30600C30200C30200C47
:1031A00010200C10600FFFC0083F0008000008004E
:1031B000600E3FE007FC000000000000000000007F
:1031C000000000000000CCEE000000000000000342
:1031D0000000FFE00C07F00C06000CFF803FF0E061
:1031E0001FC0600CFE300CCC3004F83004FF20040B
:1031F000C0201FFE603EC06001FFF001FFF00060D4
:10320000600040000000000000000000000000001E
:10321000B3E400000000000000200000300007FFC1
:10322000F03FFFE00300000601800C01800801C0B0
:103230001807E00FFE7007E0000206000604000415
:1032400004000404000C06700C07E00000000000FD
:1032500000000000000000000000B2E200000000DA
:10326000000000003039FC301FCC300706B00F06DC
:10327000F01907B03137B03136F01F27F00167F091
:1032800001E5F001E1F00041F00CF8B03CD830006D
:103290008C300080300000000000000000000000C2
:1032A00000000000CAD40000000000000803600C09
:1032B00003700C0330003FE0003F800801003C0138
:1032C00080047F80047D800C00800C10C00C10C036
:1032D0000C18400C1C600F7E60067030000030003F
:1032E0000000000000000000000000000000CEC44C
:1032F00000000000C00000E00000700001FFE01FBF
:10330000FFC0180100000300000600000E00001CB2
:10331000000E180007300001E00000F00000FC0083
:10332000018F000303C00201E00000000000000064
:103330000000000000000000D7D6000000000000E0
:10334000002000003F0031FFE03FC0203800303057
:10335000FE2033C660100200000C000018000018A8
:1033600000000C0007FFE03FFFE0000400000C003D
:10337000000C000000000000000000000000000041
:103380000000CFD400000000000007FF000F03C0C2
:103390000C00401FF8601800600800400E01C007D4
:1033A000FF000000000184000184001987800F8C59
:1033B000E0078C2000CC0003FFE01FFFC0000000EE
:1033C000000000000000000000000000CABE000075
:1033D000000000000E00001FFFC0007FE0000000A2
:1033E000000000000000000000003FC03FFFE000C0
:1033F00030000030000030000613000C13C00C1821
:10340000F01818001818000000000000000000006C
:10341000000000000000CDBC00000000000007FF1D
:10342000000F03801CC0C019FC6011C66033062069
:1034300033E63036FF30301FF030703030FC303340
:103440009F3036002010E060187C400E01C003FF62
:103450000000380000000000000000000000000034
:10346000C6AC00000000000008180018080018088A
:1034700000180800180C201FFFF01FF800180000AB
:1034800010000010F8001FFE001E030010030010C3
:1034900003001003001003001802000000000000E9
:1034A00000000000000000000000CFD40000000079
:1034B000000007FF000F03C00C00401FF860180059
:1034C000600800400E01C007FF00000000018400FA
:1034D0000184001987800F8CE0078C2000CC00034A
:1034E000FFE01FFFC000000000000000000000001F
:1034F00000000000CABE0000000000000E00001F17
:10350000FFC0007FE000000000000000000000009D
:1035100000003FC03FFFE0003000003000003000FE
:103520000613000C13C00C18F0181800181800002F
:103530000000000000000000000000000000B4A532
:103540000000000000000601800FC1801E61803075
:103550004FC020CFE0078D303FC930337930337909
:10356000303FFB3037FF203267E03FE3803FE3C06E
:103570003263603267F0304FB0000000000000009E
:103580000000000000000000C3FE0000000000007A
:103590000030C000FFF00C79C00C1F800C7FE03FB2
:1035A000E0600CC0300CFC3004C03007C0301E603E
:1035B000603C3FC0041C00047FE000FFE00030C01E
:1035C000006060000000000000000000000000003B
:1035D0000000CAE40000000000000C03800C0FC0D3
:1035E000081C703F70001F9FC0101FC010000036E5
:1035F0007C3017E6301FE3B0067FB00277F007E3B8
:10360000F03F7FF01336F003263003263000000031
:10361000000000000000000000000000C8EB0000F7
:103620000000000006000003800001C00000E00070
:1036300000700000780000CC0000C6000183000389
:1036400001800700C00600E00C0070180030180070
:10365000003000000000000000000000000000003A
:10366000000000000000000000000000000000005A
:10367000000000000000000000000000000000004A
:10368000000000000000000000000000000000003A
:10369000000000000000000000000000000000002A
:1036A000000000000000000000000000000000001A
:1036B000D0360008000000207C0000006C010008EB
:1036C0004C3700087C0000208C07000088010008AF
:1036D000202535553FDE8ADF2BD2B2735BB729DF59
:1036E0002B006C69752D62726964676500000000CB
:1036F0000000000000000000FFFFFFFFFFFF0000D0
:1037000000000000000000000000000000000000B9
:10371000000000000000000000A24A0400000000B9
:103720000000000001020304060708090000000071
:10373000000000000000000000000102030401027C
:0C37400003040607080902040608000044
:04000005080001D519
:00000001FF
