:020000040800F2
:10000000600600206D010008310200082D02000882
:100010002F02000829020008350300080000000034
:100020000000000000000000000000003502000891
:100030002B0200080000000033020008E102000863
:100040008701000887010008870100088701000870
:100050008701000887010008870100088701000860
:100060008701000887010008870100088701000850
:100070008701000887010008870100088701000840
:100080008701000887010008870100088701000830
:100090008701000887010008870100088701000820
:1000A0008701000887010008870100088701000810
:1000B0008701000887010008870100088701000800
:1000C00087010008870100088701000887010008F0
:1000D00087010008870100088701000887010008E0
:1000E00087010008870100088701000800F002F876
:1000F00000F02CF80AA090E8000C82448344AAF196
:100100000107DA4501D100F021F8AFF2090EBAE893
:100110000F0013F0010F18BFFB1A43F0010318473B
:100120001C0200002C0200000023002400250026F1
:10013000103A28BF78C1FBD8520728BF30C148BF4A
:100140000B6070471FB51FBD10B510BD00F031F832
:100150001146FFF7F7FF00F0EEF800F04FF803B498
:10016000FFF7F2FF03BC00F059F800000948804790
:1001700009480047FEE7FEE7FEE7FEE7FEE7FEE789
:10018000FEE7FEE7FEE7FEE704480549054A064BA1
:1001900070470000E5020008ED0000086000002044
:1001A0006006002060020020600200207047704757
:1001B0007047754600F02CF8AE4605006946534678
:1001C00020F00700854618B020B5FFF7DDFFBDE839
:1001D00020404FF000064FF000074FF000084FF0AE
:1001E000000B21F00701AC46ACE8C009ACE8C0093F
:1001F000ACE8C009ACE8C0098D46704710B50446AC
:10020000AFF300802046BDE81040FFF7A8BF000014
:100210000048704700000020704700000149182086
:10022000ABBEFEE726000200FEE77047FEE7FEE7F2
:1002300070477047704700000CB5002126480191B7
:100240000091026842F4803202604FF4A0630268B9
:1002500002F400320092019A521C0192009A12B9E3
:10026000019A9A42F3D10268920333D50121009199
:100270001A490A6842F010020A600A6822F0030272
:100280000A600A6842F002020A60416841604168FF
:100290004160416841F480614160416821F47C1112
:1002A0004160416841F4E8114160016841F08071AA
:1002B000016001688901FCD5416821F003014160BA
:1002C000416841F0020141604168C1F381010229A6
:1002D000FAD10CBD00910CBD00100240002002407C
:1002E000704700000F4810B5016841F0010101603E
:1002F00041680D4A1140416001680C4A114001609B
:10030000016821F480210160416821F4FE0141600F
:100310004FF41F018160FFF78FFF05494FF0006028
:10032000086010BD001002400000FFF8FFFFF6FE5D
:1003300008ED00E0FEE70020704700004C030008D5
:0C034000000000206006000028010008FA
:04000005080000ED02
:00000001FF
