:020000040800F2
:100000009806002089010008EB090008CF050008C8
:10001000E9090008430200088D0F000800000000F5
:10002000000000000000000000000000750E000845
:10003000C302000800000000970D0008390F0008F7
:10004000A3010008A3010008A3010008A301000800
:10005000A3010008A3010008A3010008A3010008F0
:10006000A3010008A3010008A3010008A3010008E0
:10007000A3010008A3010008A3010008A3010008D0
:10008000A3010008A3010008A3010008A3010008C0
:10009000A3010008A3010008A3010008A3010008B0
:1000A000A3010008A3010008A3010008A3010008A0
:1000B000A3010008A3010008A3010008A301000890
:1000C000A3010008A3010008A3010008A301000880
:1000D000A3010008A3010008A3010008A301000870
:1000E000A3010008A3010008A301000800F002F822
:1000F00000F03AF80AA090E8000C82448344AAF188
:100100000107DA4501D100F02FF8AFF2090EBAE885
:100110000F0013F0010F18BFFB1A43F0010318473B
:10012000582B0000782B0000103A24BF78C878C103
:10013000FAD8520724BF30C830C144BF04680C60ED
:10014000704700000023002400250026103A28BF35
:1001500078C1FBD8520728BF30C148BF0B60704739
:100160001FB51FBD10B510BD00F031F81146FFF7E7
:10017000F7FF01F049F800F04FF803B4FFF7F2FF82
:1001800003BC00F057F800000948804709480047C1
:10019000FEE7FEE7FEE7FEE7FEE7FEE7FEE7FEE737
:1001A000FEE7FEE704480549054A064B7047000094
:1001B0003D0F0008ED000008980000209806002080
:1001C00098020020980200207047704770477546DB
:1001D00000F02CF8AE4605006946534620F00700B3
:1001E000854618B020B5FFF7DDFFBDE820404FF091
:1001F00000064FF000074FF000084FF0000B21F011
:100200000701AC46ACE8C009ACE8C009ACE8C009DD
:10021000ACE8C0098D46704710B50446AFF30080C6
:100220002046BDE81040FFF7A8BF00000048704717
:100230003400002001491820ABBEFEE72600020072
:100240007047FEE72DE9F0410E46074615460421AA
:10025000052000F02AF80021012000F0AFFE8021E7
:100260000A2000F008FE002405E0395D092000F0B6
:10027000A5FE641CE4B2B442F7D30321012000F0D0
:100280009DFEFF24052000F093FD641E14F0FF0482
:1002900001D04007F6D5222000F08AFD28702120E9
:1002A00000F086FD6870BDE8F08170B50C4605462B
:1002B00000F07EFD20EA04012846BDE8704000F011
:1002C0007DBE7047F0B5CA78002502F00F03D20654
:1002D00001D58A7813430A784FF00F0E12F0FF0F02
:1002E0004FF001021CD004680F8802FA05F637406F
:1002F000B74211D14FEA850C0EFA0CF724EA070732
:1003000003FA0CF43C43CF78282F02D0482F02D0B8
:1003100002E0466100E006616D1C082DE4D3046034
:100320000C88FF2C1ED944685FF0000606F1080710
:1003300002FA07F50F882F40AF420FD14FEA860C23
:100340000EFA0CF7BC4303FA0CF73C43CF78282F86
:1003500000D14561CF78482F00D10561761C082E69
:10036000E4D34460F0BD0246002092680A4200D007
:10037000012070474161704701617047F8B5012164
:10038000042000F009FD0224ADF8004010252A4E9B
:100390008DF803508DF8024069463046FFF792FF12
:1003A0000121042000F0F8FC8020ADF800000420BA
:1003B0008DF803008DF8024069463046FFF782FF52
:1003C0000121042000F0E8FC4020ADF800008DF889
:1003D00003508DF8024069463046FFF773FF012154
:1003E000042000F0D9FC2020ADF800008DF8035067
:1003F0008DF8024069463046FFF764FF0121042072
:1004000000F0CAFCADF800508DF803508DF80240A2
:1004100069463046FFF756FF0121102000F0BCFC72
:100420002003ADF800008DF803508DF802406946B6
:100430000248FFF747FFF8BD0008014000100140E7
:100440002DE9FF4F83B089460446DDF840B00090A7
:10045000A4E080283ED20D2804D0202808D92038D6
:1004600080B206E009F110001FFA80F9009C2EE02E
:100470000020DFF838A100264FF080080190019895
:10048000002506EB001700BF1AF8071028FA05F040
:10049000014206D009EB060081B2601980B2059ACC
:1004A00009E0DDE90501884207D009EB060081B2C9
:1004B000601980B2069A00F07DF86D1CEDB2082D2F
:1004C000E2D3761CF6B2102ED9D30834A4B20BF1C5
:1004D000010B63E04FF00008354808EB08119BF86A
:1004E000002010F8113093424DD100EB41000190F3
:1004F00041789BF80100814245D100254FF0800AE8
:100500000198002600EB45072AFA06F0B978014267
:1005100006D009EB050081B2A01980B2059A09E066
:10052000DDE90501884207D009EB050081B2A01979
:1005300080B2069A00F03EF8761CF6B2082EE3D39D
:100540000026F9782AFA06F0014207D009EB0500E7
:1005500081B2A019083080B2059A0AE0DDE90501F0
:10056000884208D009EB050081B2A019083080B29A
:10057000069A00F01FF8761CF6B2082EE1D36D1C27
:10058000EDB2102DBCD308F101001FFA80F8B8F1CC
:10059000320FA1D310340BF1020BA4B29BF8000070
:1005A00000287FF456AF07B0BDE8F08FA012000816
:1005B0001220000810B514464A1C93B2421C92B295
:1005C00000F09EF92046BDE8104000F049B8FEE773
:1005D00070B5174D4FF4005421462846FFF7CAFE68
:1005E0000A2000F039FD00F049FB00F0FFF900F0AF
:1005F00001FA412000F0CCF921462846FFF7BCFE65
:100600000A2000F029FD21462846FFF7B3FE0A2004
:1006100000F022FD21462846FFF7AEFE0A2000F03A
:100620001BFD21462846BDE87040FFF7A3BE000031
:100630000010014008B50121082000F0ADFB4FF487
:100640007C70ADF8000003208DF8020010208DF8BA
:10065000030069460148FFF735FE08BD000C014064
:1006600070B50446074840250560064E8020361FB9
:100670003060200A00F0E8FBE0B200F0E5FB3560F6
:1006800070BD0000140C014070B5064600219F2388
:100690007F22084600F034F92C2000F06BF900248A
:1006A00000253046FFF7DCFF6D1CA02DF9D3641C3C
:1006B000802CF5D370BD10B5FFF7BCFF00F00EF92C
:1006C000112000F057F9782000F0EAFCB12000F08A
:1006D00051F9012000F040F92C2000F03DF92D20C7
:1006E00000F03AF9B22000F045F9012000F034F9A9
:1006F0002C2000F031F92D2000F02EF9B32000F06D
:1007000039F9012000F028F92C2000F025F92D20DE
:1007100000F022F9012000F01FF92C2000F01CF954
:100720002D2000F019F9B42000F024F9072000F082
:1007300013F9C02000F01EF9A22000F00DF90220EC
:1007400000F00AF9842000F007F9C12000F012F946
:10075000C52000F001F9C22000F00CF90A2000F0D9
:10076000FBF8002000F0F8F8C32000F003F98A201D
:1007700000F0F2F82A2000F0EFF8C42000F0FAF8B8
:100780008A2000F0E9F8EE2000F0E6F8C52000F03D
:10079000F1F80E2000F0E0F8362000F0EBF8C02071
:1007A00000F0DAF8E02000F0E5F80F2000F0D4F8CF
:1007B0001A2000F0D1F80F2000F0CEF8182000F039
:1007C000CBF82F2000F0C8F8282000F0C5F8202032
:1007D00000F0C2F8222000F0BFF81F2000F0BCF8A3
:1007E0001B2000F0B9F8232000F0B6F8372000F005
:1007F000B3F8002000F0B0F8072000F0ADF80220B8
:1008000000F0AAF8102000F0A7F8E12000F0B2F8FC
:100810000F2000F0A1F81B2000F09EF80F2000F040
:100820009BF8172000F098F8332000F095F82C2062
:1008300000F092F8292000F08FF82E2000F08CF8BC
:10084000302000F089F8302000F086F8392000F0E0
:1008500083F83F2000F080F8002000F07DF80720AA
:1008600000F07AF8032000F077F8102000F074F818
:100870002A2000F07FF8002000F06EF8002000F041
:100880006BF8002000F068F87F2000F065F82B205E
:1008900000F070F8002000F05FF8002000F05CF835
:1008A000002000F059F89F2000F056F8F02000F0EA
:1008B00061F8012000F050F8F62000F05BF800200D
:1008C00000F04AF83A2000F055F8052000F044F80E
:1008D000BDE81040292000F04DB8000010B50748D1
:1008E0004FF480740460642000F0DAFB0348001FBA
:1008F0000460BDE81040322000F0D2BB140C01406F
:10090000F0B507461C4615460E462A2000F032F880
:10091000002000F021F8BF1CF8B200F01DF8002004
:1009200000F01AF8AD1CE8B200F016F82B2000F029
:1009300021F8002000F010F8761CF0B200F00CF85E
:10094000002000F009F8641CE0B200F005F8BDE8F2
:10095000F0402C2000F00EB830B5054940240C6062
:10096000034D80212D1F296000F06EFA2C6030BDF0
:10097000140C014010B5054940240C6080220A6027
:1009800000F062FA0148001F046010BD140C014021
:1009900010B5412801D0FF2010BD08210846FFF7FF
:1009A00084FC3D21112000F009FB8621172000F076
:1009B00005FB7F21262000F001FB1E212D2000F0E9
:1009C000FDFA00212C2000F0F9FA8D212A2000F0F8
:1009D000F5FA3E212B2000F0F1FA012000F03CFB5B
:1009E00000F008F8002010BDFEE770470321142036
:1009F000FFF75BBC10B5142000F0DAF9800705D1D1
:100A00000321BDE81040142000F035BA10BD70B5C8
:100A10000646082188B000240846FFF746FC00215E
:100A20000D2000F0CBFA80210E20FFF73EFC932032
:100A30008DF8040020208DF8050006A801AB009079
:100A4000022219460C2000F040F805000DD10021CB
:100A500001A8425C7254425C491C5440C9B204294A
:100A6000F7D3405CA04200D0FE2580210E2000F08C
:100A700002FA08B0284670BD30B587B08DF8040082
:100A80008DF80510002001A9145C0D18401CC0B29F
:100A9000AC700628F8D300200C181A5C401CC0B2B9
:100AA00022720628F8D306A800900B460C220E20CE
:100AB00000F00BF8040004D1082000F079F90007D9
:100AC00000D4FE2407B0204630BD2DE9FF5F00278B
:100AD000FE25DDF838A016468B468146B8460C2820
:100AE00005D0B9F10E0F05D11227102001E07727AC
:100AF0003020804647F08001022000F05FFA80211C
:100B00000420FFF7D2FB0021012000F057FA8021DA
:100B10000A2000F0B0F9002405E01BF804100920B9
:100B200000F04CFA641CB442F7D34946012000F0AF
:100B300045FAB9F10C0F03D180210D2000F09BF98B
:100B40004FF4FA66042000F033F90446761E04D010
:100B5000E00702D114EA080FF4D080210D20FFF73E
:100B6000A4FB36B1062000F023F910F01B0F0CD0C7
:100B7000FE2580210C2000F07EF90021012000F0EC
:100B80001DFA04B02846BDE8F09F00253C40E00770
:100B900000D0FF25B9F10C0FEBD10A2000F008F9C5
:100BA00004460C2000F004F910F007004FEAC401DD
:100BB00001D008390144CAF8001024B1122C04D91C
:100BC0001224002603E00124FBE7002605E00920AB
:100BD00000F0EEF803998855761CA642F7D3C8E7D3
:100BE00030B587B00D4630218DF8041001AC8DF87A
:100BF000050002212046A21CFFF724FB06A801AB3A
:100C00000090042219460C20FFF75FFF10B90699E7
:100C1000902902D0FE2007B030BD0023E15CE954EA
:100C20005B1CDBB2102BF9D3F5E730B50C4605465B
:100C3000082187B00846FFF738FB07210D2000F098
:100C4000BDF90321142000F016F906A801AB0090AD
:100C50008DF80450012219460C20FFF736FF10B919
:100C60000699102902D0FE2007B030BD9DF804106F
:100C700021709DF805106170F6E7000070B52B4CEF
:100C800002212046FFF778FB012000F0E5F9022160
:100C90002046FFF76FFB012000F0DEF9022120461D
:100CA000FFF76AFB0A2000F0D7F9022000F080F875
:100CB00080281DD184011E4D21462846FFF75CFB8C
:100CC0000A2000F0C9F921462846FFF753FB0A2005
:100CD00000F0C2F921462846FFF74EFB0A2000F03B
:100CE000BBF921462846FFF745FB0A2000F0B4F97E
:100CF0000F21012000F062F93D21112000F05EF982
:100D00001E212D2000F05AF900212C2000F056F968
:100D10008D212A2000F052F93E212B2000F04EF9BF
:100D20004021152000F04AF9002070BD0008014064
:100D30000010014010B588B093218DF80410702187
:100D40008DF8051000218DF80A1001AA5418435C93
:100D5000A370445C9DF80A30491C6340C9B28DF809
:100D60000A300429F2D3072101A8D21DFFF76AFA3D
:100D700008210846FFF799FA06A801AB009009225E
:100D800019460C20FFF7A1FE10B90699182900D0CA
:100D9000FE2008B010BD7047044A0029916901D0B7
:100DA000014300E081439161704700000010024060
:100DB0002DE9F041234C0646002510212046FFF77F
:100DC000D9FA7E2000EA460040F08007082620215C
:100DD0002046FFF7CFFA38064FF04001204602D5F3
:100DE000FFF7CAFA01E0FFF7C5FA20212046FFF716
:100DF000C3FA7806070E761E16F0FF06E7D108261E
:100E000020212046FFF7B6FA6806050E202120466D
:100E1000FFF7B2FA80212046FFF7A5FA012801D199
:100E200045F00105761E16F0FF06E9D11021204697
:100E3000FFF7A2FA20212046FFF79EFA2846BDE8D8
:100E4000F08100000008014070B50821084B8C01BA
:100E50001D1D1022060601D51C6000E02C602A60D2
:100E60001A604006000E491E11F0FF01F2D170BD5C
:100E7000100C0140704770B50C460546FFF798FF0F
:100E800040EA04012846BDE8704000F097B8000031
:100E90000CB50021264801910091026842F480328D
:100EA00002604FF4A063026802F400320092019ADB
:100EB000521C0192009A12B9019A9A42F3D1026827
:100EC000920333D5012100911A490A6842F01002B9
:100ED0000A600A6822F003020A600A6842F002020D
:100EE0000A604168416041684160416841F4806145
:100EF0004160416821F47C114160416841F4E8118E
:100F00004160016841F08071016001688901FCD590
:100F1000416821F003014160416841F002014160F4
:100F20004168C1F381010229FAD10CBD00910CBDC9
:100F30000010024000200240704700000F4810B52A
:100F4000016841F00101016041680D4A11404160B2
:100F500001680C4A11400160016821F480210160A0
:100F6000416821F4FE0141604FF41F018160FFF7E9
:100F70008FFF05494FF00060086010BD001002406F
:100F80000000FFF8FFFFF6FE08ED00E0FEE708B501
:100F900069465220FFF749FE50B169465220FFF7DB
:100FA00044FE28B169465220FFF73FFE002803D1D6
:100FB0000A2000F051F8EBE708BD00002DE9F041F0
:100FC000244C0E46054620212046FFF7D3F9102178
:100FD0002046FFF7CFF97E2000EA450708253806AE
:100FE0004FF04001204602D5FFF7C6F901E0FFF7B8
:100FF000C1F920212046FFF7BFF97806070E20210E
:101000002046FFF7B7F96D1E15F0FF05E7D108255B
:1010100030064FF04001204602D5FFF7ADF901E060
:10102000FFF7A8F920212046FFF7A6F97006060E63
:1010300020212046FFF79EF96D1E15F0FF05E7D130
:1010400010212046FFF798F92046BDE8F041202105
:10105000FFF792B90008014010B500214EF6602458
:1010600005E0224602235B1C9342FCD3491C8142CB
:10107000F7D310BD4FF0E0210A6922F004020A61A3
:101080000649C00800EB40020870C2EBC0104FF6E2
:10109000FF7202EAC0004880704700002000002074
:1010A0000849498848434FF0E021486100208861A1
:1010B00001220A610A69D30701D0D203FAD5086177
:1010C00088617047200000202DE9F0473449002056
:1010D000012706460D1FA1F114042A5C0B5C9A42FD
:1010E00006D166704FF400512E48FFF743F905E032
:1010F00003280ED0401CC0B20528EED3284A002099
:10110000103A02212B5C12F800C0634503D06670D0
:1011100007E067703EE0032810D0401CC0B20428EE
:10112000F0D31F4B00200C3B5FF0030215F800C00A
:1011300013F80080C44503D0667007E061702BE0AF
:10114000032812D0401CC0B20428EFD3DFF850901F
:101150000020A9F10809042315F8008019F800C03F
:10116000E04504D06670BDE8F087627016E00328A1
:101170000ED0401CC0B20428EED36078012809D0FC
:10118000022809D0032809D00428ECD16370EAE7CB
:101190006370FBE76770E6E76170E4E76270E2E7BF
:1011A000140000200010014038B5FFF7C7FE4820AA
:1011B000FFF760FFFFF77FFA0E49202008604EF628
:1011C0007D742046FFF760FA0BA0009023461F2293
:1011D0000A211020FFF734F94FF47A70FFF760FF0F
:1011E00005A0009023461F220A211020FFF728F9AE
:1011F00038BD0000100C0140524649445F5445532D
:10120000545F46494E414C00224C00206070FFF76D
:10121000CBFFFFF7B3F8FFF7DBF91F4F03254FF4C0
:1012200000561C495220891CFFF7FFFC68BB194877
:101230001030FFF7ECFB40BB16481030FFF77AFD8B
:1012400018BB144B012020701033072103F1090251
:101250006020FFF711FCC0B931463846FFF78CF823
:1012600020780C4B05EB8000C1B2103303F109026A
:101270006020FFF701FC207808498006000EFFF788
:10128000AFFCFFF721FFFFF782FE31463846FFF73C
:1012900071F8C6E700000020001001402400002083
:1012A000000000000000000000000000000000003E
:1012B000001010101010101010100000101000007E
:1012C00000006C6C242400000000010000000000FD
:1012D0000024242424FE48484848FC909090900024
:1012E00000103C549290503814121292547810000E
:1012F0000000225C94A8481010242A525488000050
:10130000000030484850206E54948C888A74000045
:10131000000030301010000000000000000000004D
:1013200000040810102020202020201010080400A5
:10133000008040202010101010101020204080004D
:101340000000000010543810385410000000000055
:1013500000000010101010FE10101010000000000F
:10136000000000000000000000000000101020003D
:1013700000000000000000FE00000000000000006F
:10138000000000000000000000000000101000003D
:101390000000040408081010202040408080000055
:1013A0000000384482828282828282824438000035
:1013B000000010701010101010101010107C0000A1
:1013C00000003844828204081020408284FC00001F
:1013D00000003844820204380402028244380000CB
:1013E0000000040C141424244444FE04040E0000E1
:1013F0000000FC808080B8C48202028284780000F1
:1014000000003C428280B8C482828282443800005C
:1014100000007E428204040808081010101000002A
:10142000000038448282443844828282443800007A
:101430000000384482828282463A028244380000A8
:10144000000000001010000000001010000000005C
:10145000000000001010000000000010102000002C
:101460000000000006186080601806000000000000
:10147000000000000000FE0000FE00000000000070
:1014800000000000C0300C020C30C0000000000062
:10149000003844828202040810101000101000006E
:1014A00000003844829AAAAAAAAAAA9680423C00BE
:1014B000000010101028282844447C4444EE00000A
:1014C0000000FC424242427C4242424242FC000056
:1014D00000003C448280808080808282443800000A
:1014E0000000F844424242424242424244F8000074
:1014F0000000FC444240447C4440404244FC000024
:101500000000FC444240447C4440404040F0000025
:101510000000344C828080808E8484844C340000AF
:101520000000EE444444447C4444444444EE0000FF
:1015300000007C101010101010101010107C000013
:1015400000003E080808080808080888887000009D
:101550000000EE44484850605048484444EE0000C3
:101560000000E040404040404040404244FC000019
:101570000000C6446C6C6C545454444444EE000067
:101580000000CE4464646454544C4C4C44E4000069
:101590000000384482828282828282824438000043
:1015A0000000F844424242447840404040E000009D
:1015B0000000384482828282828282BA443C0200E5
:1015C0000000F048444444487048444444E6000065
:1015D00000003C44828040300C02028244780000CB
:1015E00000007C54921010101010101010380000E1
:1015F0000000EE444444444444444444443800001D
:101600000000EE444444442828282810101000000C
:101610000000EE4454545454545428282828000000
:101620000000EE44442828101028284444EE00000E
:101630000000EE4444282828101010101038000034
:1016400000007E44840808102020408284FC0000B2
:10165000001C1010101010101010101010101C0092
:101660000000EE445454FE54545428282828000006
:1016700000701010101010101010101010107000CA
:10168000003048840000000000000000000000005E
:101690000000000000000000000000000000FE004C
:1016A00000402000000000000000000000000000DA
:1016B0000000000000007884047C84848C760000A4
:1016C0000000C0404040586442424242645800001A
:1016D0000000000000003844808080804438000012
:1016E00000000C040404344C848484844C360000D0
:1016F000000000000000788484FC80808478000072
:10170000000018242020F820202020202070000035
:101710000000000000003A444478807C82827C0013
:101720000000C040404058644444444444EE00003B
:1017300000001010000030101010101010380000C1
:1017400000001010000030101010101010906000F9
:101750000000C04040405C485060504844EE0000EB
:10176000000030101010101110101010103900006F
:10177000000000000000ACD29292929292D600003B
:1017800000000000000058E44444444444EE0000DB
:101790000000000000003844828282824438000049
:1017A000000000000000D864424242645840E0005B
:1017B000000000000000364C8484844C34040E0089
:1017C0000000000000006C3020202020207000006D
:1017D00000000000000078888460188444780000CD
:1017E000000000202020F8202020202024180000C5
:1017F000000000000000C64242424242463A000059
:10180000000000000000EE444428282810100000CA
:10181000000000000000EE44445454282828000032
:10182000000000000000EE442810102844EE0000E4
:10183000000000000000EE444428281010A0C00062
:101840000000000000007E448810204284FC00005C
:10185000000C1010101010601010101010100C0060
:101860000010101010101010101010101010100098
:1018700000C0202020202018202020202020C00070
:1018800000000000000000728C000000000000005A
:101890000000000000001FE000003FF000003FF0EB
:1018A00000001FE0000180060003C00F0003C00F0E
:1018B0000003C00F0003C00F0003C00F0003C00FE0
:1018C0000003C00F0003C00F00030003000000006E
:1018D0000000000000000000000300030003C00F30
:1018E0000003C00F0003C00F0003C00F0003C00FB0
:1018F0000003C00F0003C00F0003C00F00018006EB
:1019000000001FE000003FF000003FF000001FE07B
:1019100000000000000000000000008000000180C6
:10192000000003800000078000000780000007809F
:10193000000007800000078000000780000007808B
:101940000000078000000780000001800000000008
:10195000000000000000000000000180000007807F
:10196000000007800000078000000780000007805B
:10197000000007800000078000000780000007804B
:1019800000000380000001800000008000000000D3
:101990000000000000001FE000003FF00000FFF02A
:1019A0000001FFE0000000060000000F0000000F33
:1019B0000000000F0000000F0000000F0000000FEB
:1019C0000000000F0000000F00001FE300007FF880
:1019D00000007FF800001FE0000300000003C000CB
:1019E0000003C0000003C0000003C0000003C000EB
:1019F0000003C0000003C0000003C000000180001D
:101A000000001FF000003FF800003FFC00001FFE38
:101A1000000000000003FF800001FFC00000FFC0C5
:101A200000007F80000000180000003C0000003C27
:101A30000000003C0000003C0000003C0000003CB6
:101A40000000003C0000003C00007F8C0001FFE033
:101A50000001FFF000007F800000000C0000003C4F
:101A60000000003C0000003C0000003C0000003C86
:101A70000000003C0000003C0000003C000000189A
:101A800000007F800000FFC00001FFC00003FF8056
:101A9000000000000000000000020001000300033D
:101AA000000380070003C00F0003C00F0003C00F36
:101AB0000003C00F0003C00F0003C00F0003C00FDE
:101AC0000003C00F0003C00F00031FE300007FF8F6
:101AD00000007FFC00001FE0000000030000000F7A
:101AE0000000000F0000000F0000000F0000000FBA
:101AF0000000000F0000000F0000000F0000000FAA
:101B000000000007000000030000000100000000CA
:101B10000000000000001FFC00003FF800003FF044
:101B200000001FE0000180000003C0000003C000AF
:101B30000003C0000003C0000003C0000003C00099
:101B40000003C0000003C00000031FE000007FF896
:101B500000007FF800001FE0000000030000000FFD
:101B60000000000F0000000F0000000F0000000F39
:101B70000000000F0000000F0000000F0000000632
:101B800000003FE000007FF00000FFF00001FFE0F8
:101B90000000000000001FFC00003FF800003FF0C4
:101BA00000001FE0000180000003C0000003C0002F
:101BB0000003C0000003C0000003C0000003C00019
:101BC0000003C0000003C00000031FE000007FF816
:101BD00000007FFC00001FE0000300030003C00FB3
:101BE0000003C00F0003C00F0003C00F0003C00FAD
:101BF0000003C00F0003C00F0003C00F00018006E8
:101C000000001FE000003FF000003FF000001FE078
:101C1000000000000007FFE00003FFC00001FF8894
:101C20000000FF1800000038000000780000007875
:101C300000000078000000780000007800000078C4
:101C4000000000780000007800000018000000008C
:101C500000000000000000000000001800000078F4
:101C60000000007800000078000000780000007894
:101C70000000007800000078000000780000007884
:101C800000000038000000180000000800000000FC
:101C90000000000000001FE000003FF000003FF0E7
:101CA00000001FE0000180060003C00F0003C00F0A
:101CB0000003C00F0003C00F0003C00F0003C00FDC
:101CC0000003C00F0003C00F00031FE300007FF8F4
:101CD00000007FFC00001FE0000300030003C00FB2
:101CE0000003C00F0003C00F0003C00F0003C00FAC
:101CF0000003C00F0003C00F0003C00F00018006E7
:101D000000001FE000003FF000003FF000001FE077
:101D10000000000000001FE000003FF000003FF066
:101D200000001FE0000180060003C00F0003C00F89
:101D30000003C00F0003C00F0003C00F0003C00F5B
:101D40000003C00F0003C00F00031FE300007FF873
:101D500000007FFC00001FE0000000030000000FF7
:101D60000000000F0000000F0000000F0000000F37
:101D70000000000F0000000F0000000F0000000630
:101D800000001FE000003FF000007FF00000FFE0D7
:101D90000000000000000000000000000000000043
:101DA0000000000000000000000000000000000033
:101DB0000000000000000000000000000000000023
:101DC0000000000000000000000000000000000013
:101DD0000000000000000000000000000000000003
:101DE000000000000000780000007800000078008B
:101DF000000078000000780000007800000000007B
:101E000000000000000000000000000000000000D2
:101E100000000000000000000000000000000000C2
:101E200000000000000000000000000000000000B2
:101E30000000070000000F8000000F8000000F80EE
:101E4000000007000000000000000000000000008B
:101E5000000000000000000000000000000007007B
:101E600000000F8000000F8000000F8000000700BE
:101E70000000000000000000000000000000000062
:101E80000000000000000000000000000000000052
:101E90000000000000000000000000000000000042
:101EA0000007C006000FE0060000000C0030181804
:101EB000003018180030183000301830003018602A
:101EC000003008C00007C0C0000FE0800000000024
:101ED0000000000FE0000607C000063018000C30BC
:101EE00018000C301800183018003030180030304E
:101EF000180060000000C00FE000C007C000000034
:101F000000000000000000000000000000000000D1
:101F100000000000000000000000000000000000C1
:101F20000000000000000000000700E0000887FC3F
:101F300000088E0300089801800718008000300018
:101F40000000300000007000000060000000600031
:101F500000006000000060000000600000007000F1
:101F600000003000000030000000380000001801C0
:101F700000000C03000007FC000001F0000000005E
:101F80000000000000000000000000000000000051
:101F90000000000000000000000000000000000041
:101FA0000000000000000000000000000000000031
:101FB0000000000000000000000000000000000021
:101FC00000000000000000000000000000003FF0E2
:101FD00000007FF000007FE00000FFC00000000074
:101FE00000000000000000000000000000000000F1
:101FF00000000000000000000000000000000000E1
:1020000000000000000000000000000000000000D0
:102010000000B5E70200020002007FF0421042100B
:102020007FF0421042107FF042000208020801F8DF
:1020300000000000D7D37FF00020004000800100A6
:102040000200FFF80200020002000200020002008B
:102050000E0000000000C8AB010001000280044037
:10206000082010102FE8C106010001001FF0010038
:10207000010001007FFC0000B6AF004000407C4042
:10208000004001FC0044FE44204420442084488455
:102090004484FD04450402280410BCBC1020102018
:1020A000102013FEFC201020102015FC188430880E
:1020B000D04810501020105051882606CAF5010053
:1020C0000120011001107FFC03800540054009201C
:1020D0001110210841040102010001000100D2BADF
:1020E0000080404027F8114001408278424816A8FD
:1020F0001AD02350222042204250028800000000C3
:10210000BEA73FE020203FE020203FE00000FDF898
:1021100085088508FDF885088508FDF88508000014
:102120000000B2E200084F8828880AA88AA84AA8B6
:102130000AA82AA82AA8422845088488888810382E
:1021400000000000CAD44050204820400FF8004052
:10215000E04027402240224022202A2833A82E187F
:10216000000800000000B3CC00001BF0E2102210B9
:1021700023F0F800200033F068806080A3F0208016
:10218000208027F800000000D0F2020001003FF894
:1021900020002FF02020224021803FF8208820902E
:1021A00040804080838000000000D1D5200010F8DE
:1021B0007E20444028F87E8848A850A864A848A8F3
:1021C00072A884501888610800000000C9AB100094
:1021D00010003FE0404080807FF0421042104210EB
:1021E0007FF04000400840083FF800000000CCEEBF
:1021F00020802FF8208027F0F41027F0241027F0FB
:10220000241027F03410CFF8022004100000000042
:10221000B3E404000200FFF80800104020207FF023
:10222000089008800880088010882088C078000006
:102230000000CEC4040002000200FFF8104010406D
:102240000880088005000200050008803060C01882
:1022500000000000D7D604000200FFF880088008C4
:102260003FC0008001000200FFF8020002000200EF
:102270000E0000000000CFD43FE0202020203FE0EF
:10228000202020203FE008804890289028A0088047
:102290000880FFF800000000CABE00003FE0000018
:1022A00000000000FFF80200124012202210420835
:1022B000820802000E0000000000CDBC7FF840083C
:1022C000440847C84848548843084CC87338408875
:1022D0004C08430840887FF800000000C6AC00802E
:1022E0002080208020803FF02000200020003FC080
:1022F0002040204020404040804000000000B4A525
:1023000020403840484091F07D50555055507D5008
:1023100055F054407C40545057F88C0800000000A1
:10232000C3FE2220222027F8FA2027F0241027F0CD
:102330003410E7F020802FF821402220EC18000014
:102340000000CAE440804140F22044108BE8A00025
:10235000F78824A827A834A8E7A824A8248825B8A3
:1023600000000000C8EB08000400040002000200A6
:102370000500050008800880104010402020401013
:10238000800800000000C8AB0200020005000880C1
:1023900010402020DFD8020002001FC0020002000F
:1023A0000200FFF800000000B3CC00001BF0E210B8
:1023B000221023F0F800200033F068806080A3F042
:1023C0002080208027F800000000BCBC20802080F6
:1023D0002080F7F02080208027E03220E22021407A
:1023E000208021402220EC1800000000CAF50200E5
:1023F000024002200200FFF807000A800A80124013
:102400002220421082080200020000000000D6A72D
:1024100002000200FFF8020002007FE010201040DE
:10242000088005000200050018C0E0380000000028
:10243000B3D62080208023F0F880208027F8282041
:102440003020E7F82020222021202020E0E000009A
:102450000000D7A8020002007FF004000400FFF88B
:10246000080010003FE0002000401C8003000080B6
:1024700000000000D7A201004080200017F000807B
:1024800080804080008017F0108020802080408075
:102490004FF800000000C5FA204024402440F448D2
:1024A0002450276024403440E44024402440254800
:1024B0002648E43800000000B7A2020022202210C3
:1024C00044007FF8040008000FE0142024404280FC
:1024D000810006C0383800000000B3C900A0009099
:1024E00000807FF8408040907C90449044A044A0BD
:1024F000444858A84118820800000000B9A601000D
:102500000100F90023F021102110211021102110C9
:102510003910C21002100410086000000000D2C67A
:102520000000002000780CE47904516810307E60CF
:1025300019981A3C2FE448E4083800300060000085
:10254000D1A100000120012003FC622034200420DE
:1025500003FC240021B021202220323E18000FE08D
:102560000000D4F10000000010FC1304110C3DF831
:10257000703E10D015907CF0503E18101BFE0230BB
:1025800000200000CFEE0000000003FE00607C4051
:1025900012FC11041106113611241F44794400C0A5
:1025A000009C01860000C4BF000000000FE03C1842
:1025B000200820043E04600460047E046004200CB3
:1025C00020081FF001800000B6CC0000080011FCBC
:1025D000103E3EF82D8C2904490409043E8C50FC21
:1025E00010881EC811FC100E0000B0B4000000409E
:1025F000006012FE13023A427F4410C41BFE3C9856
:102600007190113011A00078004C0000C8B7000094
:10261000004000F878C41F8C313821EC2126413A63
:102620007DE2272225FA3D26012401040000B6A8F8
:102630000000010001705FFC700420042FF801000D
:102640001100113821C431003F0063E04038000020
:10265000B3A4000000000818086008C00B001E00AA
:10266000181C7FF01000118010E01838098E0F0040
:102670000000B0B400000040006012FE13023A42B5
:102680007F4410C41BFE3C987190113011A000785B
:10269000004C0000B7B50000000007F80600240059
:1026A00014F8078C04042408261825F0647C64C2FE
:1026B00020801FC00000BBD8000000001FF03018B1
:1026C0002008278C2C44284428442CC42784200428
:1026D000300C1FF803800000000000000000000024
:1026E00000000000000000000000000000000000EA
:1026F00000000000000000000000B4BF0000000067
:102700000000020100063FC00C3FE0180300100269
:10271000003336603726203E66301C643018642053
:1027200031FEE03F1FC01C0C00000C000704003EFF
:1027300007F00001C00000000000000000000000E1
:1027400000000000C9AB00000000000001FE000313
:10275000E3000703000C03001C3F003BFFC03F30B9
:10276000600C30200C30200C10200C10600FFFC0CB
:10277000083F000800000800600E3FE007FC000072
:102780000000000000000000000000000000CCEE8F
:1027900000000000000000030000FFE00C07F00C48
:1027A00006000CFF803FF0E01FC0600CFE300CCC38
:1027B0003004F83004FF2004C0201FFE603EC060DB
:1027C00001FFF001FFF00060600040000000000029
:1027D0000000000000000000B3E400000000000062
:1027E00000200000300007FFF03FFFE0030000067C
:1027F00001800C01800801C01807E00FFE7007E09F
:10280000000206000604000404000404000C067024
:102810000C07E000000000000000000000000000C5
:102820000000B2E200000000000000003039FC307F
:102830001FCC300706B00F06F01907B03137B031A2
:1028400036F01F27F00167F001E5F001E1F00041EB
:10285000F00CF8B03CD830008C3000803000000024
:10286000000000000000000000000000CAD40000CA
:10287000000000000803600C03700C0330003FE010
:10288000003F800801003C0180047F80047D800CB3
:1028900000800C10C00C10C00C18400C1C600F7E87
:1028A00060067030000030000000000000000000F2
:1028B000000000000000CEC400000000C00000E0E6
:1028C0000000700001FFE01FFFC0180100000300BE
:1028D000000600000E00001C000E1800073000016A
:1028E000E00000F00000FC00018F000303C00201C3
:1028F000E0000000000000000000000000000000F8
:10290000D7D6000000000000002000003F0031FF8B
:10291000E03FC02038003030FE2033C66010020097
:10292000000C00001800001800000C0007FFE03F3A
:10293000FFE0000400000C00000C0000000000009C
:1029400000000000000000000000CFD400000000E4
:10295000000007FF000F03C00C00401FF8601800C4
:10296000600800400E01C007FF0000000001840065
:102970000184001987800F8CE0078C2000CC0003B5
:10298000FFE01FFFC000000000000000000000008A
:1029900000000000CABE0000000000000E00001F82
:1029A000FFC0007FE0000000000000000000000009
:1029B00000003FC03FFFE00030000030000030006A
:1029C0000613000C13C00C18F0181800181800009B
:1029D0000000000000000000000000000000CDBC6E
:1029E00000000000000007FF000F03801CC0C0199A
:1029F000FC6011C66033062033E63036FF30301FEE
:102A0000F030703030FC30339F3036002010E06002
:102A1000187C400E01C003FF0000380000000000D9
:102A20000000000000000000C6AC00000000000034
:102A3000081800180800180800180800180C201FB3
:102A4000FFF01FF80018000010000010F8001FFE33
:102A5000001E030010030010030010030010030009
:102A6000180200000000000000000000000000004C
:102A70000000CFD400000000000007FF000F03C0DB
:102A80000C00401FF8601800600800400E01C007ED
:102A9000FF000000000184000184001987800F8C72
:102AA000E0078C2000CC0003FFE01FFFC000000007
:102AB000000000000000000000000000CABE00008E
:102AC000000000000E00001FFFC0007FE0000000BB
:102AD000000000000000000000003FC03FFFE000D9
:102AE00030000030000030000613000C13C00C183A
:102AF000F018180018180000000000000000000086
:102B0000000000000000B4A5000000000000060165
:102B1000800FC1801E6180304FC020CFE0078D3014
:102B20003FC9303379303379303FFB3037FF2032C3
:102B300067E03FE3803FE3C03263603267F0304FCD
:102B4000B0000000000000000000000000000000D5
:102B5000C3FE0000000000000030C000FFF00C7950
:102B6000C00C1F800C7FE03FE0600CC0300CFC30DC
:102B700004C03007C0301E60603C3FC0041C00042D
:102B80007FE000FFE00030C0006060000000000057
:102B900000000000000000000000CAE40000000087
:102BA00000000C03800C0FC0081C703F70001F9FBA
:102BB000C0101FC0100000367C3017E6301FE3B095
:102BC000067FB00277F007E3F03F7FF01336F003A3
:102BD0002630032630000000000000000000000046
:102BE00000000000C8EB0000000000000600000329
:102BF000800001C00000E00000700000780000CC00
:102C00000000C6000183000301800700C00600E049
:102C10000C007018003018000030000000000000A8
:102C200000000000000000000000000000000000A4
:102C30000000000000000000000000000000000094
:102C40000000000000000000000000000000000084
:102C50000000000000000000000000000000000074
:102C60000000000000000000000000000000000064
:102C70000000000000000000982C00080000002068
:102C80002400000028010008BC2C000824000020BB
:102C9000740600004401000800000000DE8ADF2BFB
:102CA000D2B2735BB729DF2B000000002025355519
:0C2CB0003FFFFFFFFFFFFF0000000000DF
:04000005080000ED02
:00000001FF
